{
  "_format": "hh-sol-artifact-1",
  "contractName": "TecRewardsBadge",
  "sourceName": "contracts/TecRewardsBadge.sol",
  "abi": [
    {
      "inputs": [],
      "stateMutability": "nonpayable",
      "type": "constructor"
    },
    {
      "anonymous": false,
      "inputs": [
        {
          "indexed": true,
          "internalType": "address",
          "name": "owner",
          "type": "address"
        },
        {
          "indexed": true,
          "internalType": "address",
          "name": "approved",
          "type": "address"
        },
        {
          "indexed": true,
          "internalType": "uint256",
          "name": "tokenId",
          "type": "uint256"
        }
      ],
      "name": "Approval",
      "type": "event"
    },
    {
      "anonymous": false,
      "inputs": [
        {
          "indexed": true,
          "internalType": "address",
          "name": "owner",
          "type": "address"
        },
        {
          "indexed": true,
          "internalType": "address",
          "name": "operator",
          "type": "address"
        },
        {
          "indexed": false,
          "internalType": "bool",
          "name": "approved",
          "type": "bool"
        }
      ],
      "name": "ApprovalForAll",
      "type": "event"
    },
    {
      "anonymous": false,
      "inputs": [
        {
          "indexed": true,
          "internalType": "address",
          "name": "previousOwner",
          "type": "address"
        },
        {
          "indexed": true,
          "internalType": "address",
          "name": "newOwner",
          "type": "address"
        }
      ],
      "name": "OwnershipTransferred",
      "type": "event"
    },
    {
      "anonymous": false,
      "inputs": [
        {
          "indexed": false,
          "internalType": "address",
          "name": "account",
          "type": "address"
        }
      ],
      "name": "Paused",
      "type": "event"
    },
    {
      "anonymous": false,
      "inputs": [
        {
          "indexed": true,
          "internalType": "address",
          "name": "from",
          "type": "address"
        },
        {
          "indexed": true,
          "internalType": "address",
          "name": "to",
          "type": "address"
        },
        {
          "indexed": true,
          "internalType": "uint256",
          "name": "tokenId",
          "type": "uint256"
        }
      ],
      "name": "Transfer",
      "type": "event"
    },
    {
      "anonymous": false,
      "inputs": [
        {
          "indexed": false,
          "internalType": "address",
          "name": "account",
          "type": "address"
        }
      ],
      "name": "Unpaused",
      "type": "event"
    },
    {
      "inputs": [
        {
          "internalType": "address",
          "name": "to",
          "type": "address"
        },
        {
          "internalType": "uint256",
          "name": "tokenId",
          "type": "uint256"
        }
      ],
      "name": "approve",
      "outputs": [],
      "stateMutability": "nonpayable",
      "type": "function"
    },
    {
      "inputs": [
        {
          "internalType": "address",
          "name": "owner",
          "type": "address"
        }
      ],
      "name": "balanceOf",
      "outputs": [
        {
          "internalType": "uint256",
          "name": "",
          "type": "uint256"
        }
      ],
      "stateMutability": "view",
      "type": "function"
    },
    {
      "inputs": [
        {
          "internalType": "uint256",
          "name": "tokenId",
          "type": "uint256"
        }
      ],
      "name": "getApproved",
      "outputs": [
        {
          "internalType": "address",
          "name": "",
          "type": "address"
        }
      ],
      "stateMutability": "view",
      "type": "function"
    },
    {
      "inputs": [
        {
          "internalType": "address",
          "name": "owner",
          "type": "address"
        },
        {
          "internalType": "address",
          "name": "operator",
          "type": "address"
        }
      ],
      "name": "isApprovedForAll",
      "outputs": [
        {
          "internalType": "bool",
          "name": "",
          "type": "bool"
        }
      ],
      "stateMutability": "view",
      "type": "function"
    },
    {
      "inputs": [],
      "name": "name",
      "outputs": [
        {
          "internalType": "string",
          "name": "",
          "type": "string"
        }
      ],
      "stateMutability": "view",
      "type": "function"
    },
    {
      "inputs": [],
      "name": "owner",
      "outputs": [
        {
          "internalType": "address",
          "name": "",
          "type": "address"
        }
      ],
      "stateMutability": "view",
      "type": "function"
    },
    {
      "inputs": [
        {
          "internalType": "uint256",
          "name": "tokenId",
          "type": "uint256"
        }
      ],
      "name": "ownerOf",
      "outputs": [
        {
          "internalType": "address",
          "name": "",
          "type": "address"
        }
      ],
      "stateMutability": "view",
      "type": "function"
    },
    {
      "inputs": [],
      "name": "pause",
      "outputs": [],
      "stateMutability": "nonpayable",
      "type": "function"
    },
    {
      "inputs": [],
      "name": "paused",
      "outputs": [
        {
          "internalType": "bool",
          "name": "",
          "type": "bool"
        }
      ],
      "stateMutability": "view",
      "type": "function"
    },
    {
      "inputs": [],
      "name": "renounceOwnership",
      "outputs": [],
      "stateMutability": "nonpayable",
      "type": "function"
    },
    {
      "inputs": [
        {
          "internalType": "address",
          "name": "to",
          "type": "address"
        }
      ],
      "name": "safeMint",
      "outputs": [],
      "stateMutability": "nonpayable",
      "type": "function"
    },
    {
      "inputs": [
        {
          "internalType": "address",
          "name": "from",
          "type": "address"
        },
        {
          "internalType": "address",
          "name": "to",
          "type": "address"
        },
        {
          "internalType": "uint256",
          "name": "tokenId",
          "type": "uint256"
        }
      ],
      "name": "safeTransferFrom",
      "outputs": [],
      "stateMutability": "nonpayable",
      "type": "function"
    },
    {
      "inputs": [
        {
          "internalType": "address",
          "name": "from",
          "type": "address"
        },
        {
          "internalType": "address",
          "name": "to",
          "type": "address"
        },
        {
          "internalType": "uint256",
          "name": "tokenId",
          "type": "uint256"
        },
        {
          "internalType": "bytes",
          "name": "_data",
          "type": "bytes"
        }
      ],
      "name": "safeTransferFrom",
      "outputs": [],
      "stateMutability": "nonpayable",
      "type": "function"
    },
    {
      "inputs": [
        {
          "internalType": "address",
          "name": "operator",
          "type": "address"
        },
        {
          "internalType": "bool",
          "name": "approved",
          "type": "bool"
        }
      ],
      "name": "setApprovalForAll",
      "outputs": [],
      "stateMutability": "nonpayable",
      "type": "function"
    },
    {
      "inputs": [
        {
          "internalType": "bytes4",
          "name": "interfaceId",
          "type": "bytes4"
        }
      ],
      "name": "supportsInterface",
      "outputs": [
        {
          "internalType": "bool",
          "name": "",
          "type": "bool"
        }
      ],
      "stateMutability": "view",
      "type": "function"
    },
    {
      "inputs": [],
      "name": "symbol",
      "outputs": [
        {
          "internalType": "string",
          "name": "",
          "type": "string"
        }
      ],
      "stateMutability": "view",
      "type": "function"
    },
    {
      "inputs": [
        {
          "internalType": "uint256",
          "name": "index",
          "type": "uint256"
        }
      ],
      "name": "tokenByIndex",
      "outputs": [
        {
          "internalType": "uint256",
          "name": "",
          "type": "uint256"
        }
      ],
      "stateMutability": "view",
      "type": "function"
    },
    {
      "inputs": [
        {
          "internalType": "address",
          "name": "owner",
          "type": "address"
        },
        {
          "internalType": "uint256",
          "name": "index",
          "type": "uint256"
        }
      ],
      "name": "tokenOfOwnerByIndex",
      "outputs": [
        {
          "internalType": "uint256",
          "name": "",
          "type": "uint256"
        }
      ],
      "stateMutability": "view",
      "type": "function"
    },
    {
      "inputs": [
        {
          "internalType": "uint256",
          "name": "tokenId",
          "type": "uint256"
        }
      ],
      "name": "tokenURI",
      "outputs": [
        {
          "internalType": "string",
          "name": "",
          "type": "string"
        }
      ],
      "stateMutability": "view",
      "type": "function"
    },
    {
      "inputs": [],
      "name": "totalSupply",
      "outputs": [
        {
          "internalType": "uint256",
          "name": "",
          "type": "uint256"
        }
      ],
      "stateMutability": "view",
      "type": "function"
    },
    {
      "inputs": [
        {
          "internalType": "address",
          "name": "from",
          "type": "address"
        },
        {
          "internalType": "address",
          "name": "to",
          "type": "address"
        },
        {
          "internalType": "uint256",
          "name": "tokenId",
          "type": "uint256"
        }
      ],
      "name": "transferFrom",
      "outputs": [],
      "stateMutability": "nonpayable",
      "type": "function"
    },
    {
      "inputs": [
        {
          "internalType": "address",
          "name": "newOwner",
          "type": "address"
        }
      ],
      "name": "transferOwnership",
      "outputs": [],
      "stateMutability": "nonpayable",
      "type": "function"
    },
    {
      "inputs": [],
      "name": "unpause",
      "outputs": [],
      "stateMutability": "nonpayable",
      "type": "function"
    }
  ],
  "bytecode": "0x60806040523480156200001157600080fd5b506040518060400160405280600f81526020017f54656352657761726473426164676500000000000000000000000000000000008152506040518060400160405280600381526020017f5452420000000000000000000000000000000000000000000000000000000000815250816000908051906020019062000096929190620001c1565b508060019080519060200190620000af929190620001c1565b5050506000600a60006101000a81548160ff021916908315150217905550620000ed620000e1620000f360201b60201c565b620000fb60201b60201c565b620002d6565b600033905090565b6000600a60019054906101000a900473ffffffffffffffffffffffffffffffffffffffff16905081600a60016101000a81548173ffffffffffffffffffffffffffffffffffffffff021916908373ffffffffffffffffffffffffffffffffffffffff1602179055508173ffffffffffffffffffffffffffffffffffffffff168173ffffffffffffffffffffffffffffffffffffffff167f8be0079c531659141344cd1fd0a4f28419497f9722a3daafe3b4186f6b6457e060405160405180910390a35050565b828054620001cf9062000271565b90600052602060002090601f016020900481019282620001f357600085556200023f565b82601f106200020e57805160ff19168380011785556200023f565b828001600101855582156200023f579182015b828111156200023e57825182559160200191906001019062000221565b5b5090506200024e919062000252565b5090565b5b808211156200026d57600081600090555060010162000253565b5090565b600060028204905060018216806200028a57607f821691505b60208210811415620002a157620002a0620002a7565b5b50919050565b7f4e487b7100000000000000000000000000000000000000000000000000000000600052602260045260246000fd5b61375580620002e66000396000f3fe608060405234801561001057600080fd5b506004361061014d5760003560e01c80635c975abb116100c357806395d89b411161007c57806395d89b4114610378578063a22cb46514610396578063b88d4fde146103b2578063c87b56dd146103ce578063e985e9c5146103fe578063f2fde38b1461042e5761014d565b80635c975abb146102c85780636352211e146102e657806370a0823114610316578063715018a6146103465780638456cb59146103505780638da5cb5b1461035a5761014d565b806323b872dd1161011557806323b872dd1461020a5780632f745c59146102265780633f4ba83a1461025657806340d097c31461026057806342842e0e1461027c5780634f6ccce7146102985761014d565b806301ffc9a71461015257806306fdde0314610182578063081812fc146101a0578063095ea7b3146101d057806318160ddd146101ec575b600080fd5b61016c6004803603810190610167919061265d565b61044a565b6040516101799190612aef565b60405180910390f35b61018a61045c565b6040516101979190612b0a565b60405180910390f35b6101ba60048036038101906101b591906126af565b6104ee565b6040516101c79190612a88565b60405180910390f35b6101ea60048036038101906101e59190612621565b610573565b005b6101f461068b565b6040516102019190612dac565b60405180910390f35b610224600480360381019061021f919061251b565b610698565b005b610240600480360381019061023b9190612621565b6106f8565b60405161024d9190612dac565b60405180910390f35b61025e61079d565b005b61027a600480360381019061027591906124b6565b610823565b005b6102966004803603810190610291919061251b565b610849565b005b6102b260048036038101906102ad91906126af565b610869565b6040516102bf9190612dac565b60405180910390f35b6102d0610900565b6040516102dd9190612aef565b60405180910390f35b61030060048036038101906102fb91906126af565b610917565b60405161030d9190612a88565b60405180910390f35b610330600480360381019061032b91906124b6565b6109c9565b60405161033d9190612dac565b60405180910390f35b61034e610a81565b005b610358610b09565b005b610362610b8f565b60405161036f9190612a88565b60405180910390f35b610380610bb9565b60405161038d9190612b0a565b60405180910390f35b6103b060048036038101906103ab91906125e5565b610c4b565b005b6103cc60048036038101906103c7919061256a565b610c61565b005b6103e860048036038101906103e391906126af565b610cc3565b6040516103f59190612b0a565b60405180910390f35b610418600480360381019061041391906124df565b610d6a565b6040516104259190612aef565b60405180910390f35b610448600480360381019061044391906124b6565b610dfe565b005b600061045582610ef6565b9050919050565b60606000805461046b90612fd1565b80601f016020809104026020016040519081016040528092919081815260200182805461049790612fd1565b80156104e45780601f106104b9576101008083540402835291602001916104e4565b820191906000526020600020905b8154815290600101906020018083116104c757829003601f168201915b5050505050905090565b60006104f982610f70565b610538576040517f08c379a000000000000000000000000000000000000000000000000000000000815260040161052f90612cec565b60405180910390fd5b6004600083815260200190815260200160002060009054906101000a900473ffffffffffffffffffffffffffffffffffffffff169050919050565b600061057e82610917565b90508073ffffffffffffffffffffffffffffffffffffffff168373ffffffffffffffffffffffffffffffffffffffff1614156105ef576040517f08c379a00000000000000000000000000000000000000000000000000000000081526004016105e690612d4c565b60405180910390fd5b8073ffffffffffffffffffffffffffffffffffffffff1661060e610fdc565b73ffffffffffffffffffffffffffffffffffffffff16148061063d575061063c81610637610fdc565b610d6a565b5b61067c576040517f08c379a000000000000000000000000000000000000000000000000000000000815260040161067390612c6c565b60405180910390fd5b6106868383610fe4565b505050565b6000600880549050905090565b6106a96106a3610fdc565b8261109d565b6106e8576040517f08c379a00000000000000000000000000000000000000000000000000000000081526004016106df90612d6c565b60405180910390fd5b6106f383838361117b565b505050565b6000610703836109c9565b8210610744576040517f08c379a000000000000000000000000000000000000000000000000000000000815260040161073b90612b4c565b60405180910390fd5b600660008473ffffffffffffffffffffffffffffffffffffffff1673ffffffffffffffffffffffffffffffffffffffff168152602001908152602001600020600083815260200190815260200160002054905092915050565b6107a5610fdc565b73ffffffffffffffffffffffffffffffffffffffff166107c3610b8f565b73ffffffffffffffffffffffffffffffffffffffff1614610819576040517f08c379a000000000000000000000000000000000000000000000000000000000815260040161081090612d0c565b60405180910390fd5b6108216113e2565b565b600061082f600b611484565b905061083b600b611492565b61084582826114a8565b5050565b61086483838360405180602001604052806000815250610c61565b505050565b600061087361068b565b82106108b4576040517f08c379a00000000000000000000000000000000000000000000000000000000081526004016108ab90612d8c565b60405180910390fd5b600882815481106108ee577f4e487b7100000000000000000000000000000000000000000000000000000000600052603260045260246000fd5b90600052602060002001549050919050565b6000600a60009054906101000a900460ff16905090565b6000806002600084815260200190815260200160002060009054906101000a900473ffffffffffffffffffffffffffffffffffffffff169050600073ffffffffffffffffffffffffffffffffffffffff168173ffffffffffffffffffffffffffffffffffffffff1614156109c0576040517f08c379a00000000000000000000000000000000000000000000000000000000081526004016109b790612cac565b60405180910390fd5b80915050919050565b60008073ffffffffffffffffffffffffffffffffffffffff168273ffffffffffffffffffffffffffffffffffffffff161415610a3a576040517f08c379a0000000000000000000000000000000000000000000000000000000008152600401610a3190612c8c565b60405180910390fd5b600360008373ffffffffffffffffffffffffffffffffffffffff1673ffffffffffffffffffffffffffffffffffffffff168152602001908152602001600020549050919050565b610a89610fdc565b73ffffffffffffffffffffffffffffffffffffffff16610aa7610b8f565b73ffffffffffffffffffffffffffffffffffffffff1614610afd576040517f08c379a0000000000000000000000000000000000000000000000000000000008152600401610af490612d0c565b60405180910390fd5b610b0760006114c6565b565b610b11610fdc565b73ffffffffffffffffffffffffffffffffffffffff16610b2f610b8f565b73ffffffffffffffffffffffffffffffffffffffff1614610b85576040517f08c379a0000000000000000000000000000000000000000000000000000000008152600401610b7c90612d0c565b60405180910390fd5b610b8d61158c565b565b6000600a60019054906101000a900473ffffffffffffffffffffffffffffffffffffffff16905090565b606060018054610bc890612fd1565b80601f0160208091040260200160405190810160405280929190818152602001828054610bf490612fd1565b8015610c415780601f10610c1657610100808354040283529160200191610c41565b820191906000526020600020905b815481529060010190602001808311610c2457829003601f168201915b5050505050905090565b610c5d610c56610fdc565b838361162f565b5050565b610c72610c6c610fdc565b8361109d565b610cb1576040517f08c379a0000000000000000000000000000000000000000000000000000000008152600401610ca890612d6c565b60405180910390fd5b610cbd8484848461179c565b50505050565b6060610cce82610f70565b610d0d576040517f08c379a0000000000000000000000000000000000000000000000000000000008152600401610d0490612d2c565b60405180910390fd5b6000610d176117f8565b90506000815111610d375760405180602001604052806000815250610d62565b80610d418461180f565b604051602001610d52929190612a64565b6040516020818303038152906040525b915050919050565b6000600560008473ffffffffffffffffffffffffffffffffffffffff1673ffffffffffffffffffffffffffffffffffffffff16815260200190815260200160002060008373ffffffffffffffffffffffffffffffffffffffff1673ffffffffffffffffffffffffffffffffffffffff16815260200190815260200160002060009054906101000a900460ff16905092915050565b610e06610fdc565b73ffffffffffffffffffffffffffffffffffffffff16610e24610b8f565b73ffffffffffffffffffffffffffffffffffffffff1614610e7a576040517f08c379a0000000000000000000000000000000000000000000000000000000008152600401610e7190612d0c565b60405180910390fd5b600073ffffffffffffffffffffffffffffffffffffffff168173ffffffffffffffffffffffffffffffffffffffff161415610eea576040517f08c379a0000000000000000000000000000000000000000000000000000000008152600401610ee190612b8c565b60405180910390fd5b610ef3816114c6565b50565b60007f780e9d63000000000000000000000000000000000000000000000000000000007bffffffffffffffffffffffffffffffffffffffffffffffffffffffff1916827bffffffffffffffffffffffffffffffffffffffffffffffffffffffff19161480610f695750610f68826119bc565b5b9050919050565b60008073ffffffffffffffffffffffffffffffffffffffff166002600084815260200190815260200160002060009054906101000a900473ffffffffffffffffffffffffffffffffffffffff1673ffffffffffffffffffffffffffffffffffffffff1614159050919050565b600033905090565b816004600083815260200190815260200160002060006101000a81548173ffffffffffffffffffffffffffffffffffffffff021916908373ffffffffffffffffffffffffffffffffffffffff160217905550808273ffffffffffffffffffffffffffffffffffffffff1661105783610917565b73ffffffffffffffffffffffffffffffffffffffff167f8c5be1e5ebec7d5bd14f71427d1e84f3dd0314c0f7b2291e5b200ac8c7c3b92560405160405180910390a45050565b60006110a882610f70565b6110e7576040517f08c379a00000000000000000000000000000000000000000000000000000000081526004016110de90612c2c565b60405180910390fd5b60006110f283610917565b90508073ffffffffffffffffffffffffffffffffffffffff168473ffffffffffffffffffffffffffffffffffffffff16148061113457506111338185610d6a565b5b8061117257508373ffffffffffffffffffffffffffffffffffffffff1661115a846104ee565b73ffffffffffffffffffffffffffffffffffffffff16145b91505092915050565b8273ffffffffffffffffffffffffffffffffffffffff1661119b82610917565b73ffffffffffffffffffffffffffffffffffffffff16146111f1576040517f08c379a00000000000000000000000000000000000000000000000000000000081526004016111e890612bac565b60405180910390fd5b600073ffffffffffffffffffffffffffffffffffffffff168273ffffffffffffffffffffffffffffffffffffffff161415611261576040517f08c379a000000000000000000000000000000000000000000000000000000000815260040161125890612bec565b60405180910390fd5b61126c838383611a9e565b611277600082610fe4565b6001600360008573ffffffffffffffffffffffffffffffffffffffff1673ffffffffffffffffffffffffffffffffffffffff16815260200190815260200160002060008282546112c79190612ee7565b925050819055506001600360008473ffffffffffffffffffffffffffffffffffffffff1673ffffffffffffffffffffffffffffffffffffffff168152602001908152602001600020600082825461131e9190612e60565b92505081905550816002600083815260200190815260200160002060006101000a81548173ffffffffffffffffffffffffffffffffffffffff021916908373ffffffffffffffffffffffffffffffffffffffff160217905550808273ffffffffffffffffffffffffffffffffffffffff168473ffffffffffffffffffffffffffffffffffffffff167fddf252ad1be2c89b69c2b068fc378daa952ba7f163c4a11628f55a4df523b3ef60405160405180910390a46113dd838383611af6565b505050565b6113ea610900565b611429576040517f08c379a000000000000000000000000000000000000000000000000000000000815260040161142090612b2c565b60405180910390fd5b6000600a60006101000a81548160ff0219169083151502179055507f5db9ee0a495bf2e6ff9c91a7834c1ba4fdd244a5e8aa4e537bd38aeae4b073aa61146d610fdc565b60405161147a9190612a88565b60405180910390a1565b600081600001549050919050565b6001816000016000828254019250508190555050565b6114c2828260405180602001604052806000815250611afb565b5050565b6000600a60019054906101000a900473ffffffffffffffffffffffffffffffffffffffff16905081600a60016101000a81548173ffffffffffffffffffffffffffffffffffffffff021916908373ffffffffffffffffffffffffffffffffffffffff1602179055508173ffffffffffffffffffffffffffffffffffffffff168173ffffffffffffffffffffffffffffffffffffffff167f8be0079c531659141344cd1fd0a4f28419497f9722a3daafe3b4186f6b6457e060405160405180910390a35050565b611594610900565b156115d4576040517f08c379a00000000000000000000000000000000000000000000000000000000081526004016115cb90612c4c565b60405180910390fd5b6001600a60006101000a81548160ff0219169083151502179055507f62e78cea01bee320cd4e420270b5ea74000d11b0c9f74754ebdbfc544b05a258611618610fdc565b6040516116259190612a88565b60405180910390a1565b8173ffffffffffffffffffffffffffffffffffffffff168373ffffffffffffffffffffffffffffffffffffffff16141561169e576040517f08c379a000000000000000000000000000000000000000000000000000000000815260040161169590612c0c565b60405180910390fd5b80600560008573ffffffffffffffffffffffffffffffffffffffff1673ffffffffffffffffffffffffffffffffffffffff16815260200190815260200160002060008473ffffffffffffffffffffffffffffffffffffffff1673ffffffffffffffffffffffffffffffffffffffff16815260200190815260200160002060006101000a81548160ff0219169083151502179055508173ffffffffffffffffffffffffffffffffffffffff168373ffffffffffffffffffffffffffffffffffffffff167f17307eab39ab6107e8899845ad3d59bd9653f200f220920489ca2b5937696c318360405161178f9190612aef565b60405180910390a3505050565b6117a784848461117b565b6117b384848484611b56565b6117f2576040517f08c379a00000000000000000000000000000000000000000000000000000000081526004016117e990612b6c565b60405180910390fd5b50505050565b606060405180602001604052806000815250905090565b60606000821415611857576040518060400160405280600181526020017f300000000000000000000000000000000000000000000000000000000000000081525090506119b7565b600082905060005b6000821461188957808061187290613034565b915050600a826118829190612eb6565b915061185f565b60008167ffffffffffffffff8111156118cb577f4e487b7100000000000000000000000000000000000000000000000000000000600052604160045260246000fd5b6040519080825280601f01601f1916602001820160405280156118fd5781602001600182028036833780820191505090505b5090505b600085146119b0576001826119169190612ee7565b9150600a85611925919061307d565b60306119319190612e60565b60f81b81838151811061196d577f4e487b7100000000000000000000000000000000000000000000000000000000600052603260045260246000fd5b60200101907effffffffffffffffffffffffffffffffffffffffffffffffffffffffffffff1916908160001a905350600a856119a99190612eb6565b9450611901565b8093505050505b919050565b60007f80ac58cd000000000000000000000000000000000000000000000000000000007bffffffffffffffffffffffffffffffffffffffffffffffffffffffff1916827bffffffffffffffffffffffffffffffffffffffffffffffffffffffff19161480611a8757507f5b5e139f000000000000000000000000000000000000000000000000000000007bffffffffffffffffffffffffffffffffffffffffffffffffffffffff1916827bffffffffffffffffffffffffffffffffffffffffffffffffffffffff1916145b80611a975750611a9682611ced565b5b9050919050565b611aa6610900565b15611ae6576040517f08c379a0000000000000000000000000000000000000000000000000000000008152600401611add90612c4c565b60405180910390fd5b611af1838383611d57565b505050565b505050565b611b058383611e6b565b611b126000848484611b56565b611b51576040517f08c379a0000000000000000000000000000000000000000000000000000000008152600401611b4890612b6c565b60405180910390fd5b505050565b6000611b778473ffffffffffffffffffffffffffffffffffffffff16612045565b15611ce0578373ffffffffffffffffffffffffffffffffffffffff1663150b7a02611ba0610fdc565b8786866040518563ffffffff1660e01b8152600401611bc29493929190612aa3565b602060405180830381600087803b158015611bdc57600080fd5b505af1925050508015611c0d57506040513d601f19601f82011682018060405250810190611c0a9190612686565b60015b611c90573d8060008114611c3d576040519150601f19603f3d011682016040523d82523d6000602084013e611c42565b606091505b50600081511415611c88576040517f08c379a0000000000000000000000000000000000000000000000000000000008152600401611c7f90612b6c565b60405180910390fd5b805181602001fd5b63150b7a0260e01b7bffffffffffffffffffffffffffffffffffffffffffffffffffffffff1916817bffffffffffffffffffffffffffffffffffffffffffffffffffffffff191614915050611ce5565b600190505b949350505050565b60007f01ffc9a7000000000000000000000000000000000000000000000000000000007bffffffffffffffffffffffffffffffffffffffffffffffffffffffff1916827bffffffffffffffffffffffffffffffffffffffffffffffffffffffff1916149050919050565b611d62838383612068565b600073ffffffffffffffffffffffffffffffffffffffff168373ffffffffffffffffffffffffffffffffffffffff161415611da557611da08161206d565b611de4565b8173ffffffffffffffffffffffffffffffffffffffff168373ffffffffffffffffffffffffffffffffffffffff1614611de357611de283826120b6565b5b5b600073ffffffffffffffffffffffffffffffffffffffff168273ffffffffffffffffffffffffffffffffffffffff161415611e2757611e2281612223565b611e66565b8273ffffffffffffffffffffffffffffffffffffffff168273ffffffffffffffffffffffffffffffffffffffff1614611e6557611e648282612366565b5b5b505050565b600073ffffffffffffffffffffffffffffffffffffffff168273ffffffffffffffffffffffffffffffffffffffff161415611edb576040517f08c379a0000000000000000000000000000000000000000000000000000000008152600401611ed290612ccc565b60405180910390fd5b611ee481610f70565b15611f24576040517f08c379a0000000000000000000000000000000000000000000000000000000008152600401611f1b90612bcc565b60405180910390fd5b611f3060008383611a9e565b6001600360008473ffffffffffffffffffffffffffffffffffffffff1673ffffffffffffffffffffffffffffffffffffffff1681526020019081526020016000206000828254611f809190612e60565b92505081905550816002600083815260200190815260200160002060006101000a81548173ffffffffffffffffffffffffffffffffffffffff021916908373ffffffffffffffffffffffffffffffffffffffff160217905550808273ffffffffffffffffffffffffffffffffffffffff16600073ffffffffffffffffffffffffffffffffffffffff167fddf252ad1be2c89b69c2b068fc378daa952ba7f163c4a11628f55a4df523b3ef60405160405180910390a461204160008383611af6565b5050565b6000808273ffffffffffffffffffffffffffffffffffffffff163b119050919050565b505050565b6008805490506009600083815260200190815260200160002081905550600881908060018154018082558091505060019003906000526020600020016000909190919091505550565b600060016120c3846109c9565b6120cd9190612ee7565b90506000600760008481526020019081526020016000205490508181146121b2576000600660008673ffffffffffffffffffffffffffffffffffffffff1673ffffffffffffffffffffffffffffffffffffffff168152602001908152602001600020600084815260200190815260200160002054905080600660008773ffffffffffffffffffffffffffffffffffffffff1673ffffffffffffffffffffffffffffffffffffffff168152602001908152602001600020600084815260200190815260200160002081905550816007600083815260200190815260200160002081905550505b6007600084815260200190815260200160002060009055600660008573ffffffffffffffffffffffffffffffffffffffff1673ffffffffffffffffffffffffffffffffffffffff16815260200190815260200160002060008381526020019081526020016000206000905550505050565b600060016008805490506122379190612ee7565b905060006009600084815260200190815260200160002054905060006008838154811061228d577f4e487b7100000000000000000000000000000000000000000000000000000000600052603260045260246000fd5b9060005260206000200154905080600883815481106122d5577f4e487b7100000000000000000000000000000000000000000000000000000000600052603260045260246000fd5b90600052602060002001819055508160096000838152602001908152602001600020819055506009600085815260200190815260200160002060009055600880548061234a577f4e487b7100000000000000000000000000000000000000000000000000000000600052603160045260246000fd5b6001900381819060005260206000200160009055905550505050565b6000612371836109c9565b905081600660008573ffffffffffffffffffffffffffffffffffffffff1673ffffffffffffffffffffffffffffffffffffffff168152602001908152602001600020600083815260200190815260200160002081905550806007600084815260200190815260200160002081905550505050565b60006123f86123f384612dec565b612dc7565b90508281526020810184848401111561241057600080fd5b61241b848285612f8f565b509392505050565b600081359050612432816136c3565b92915050565b600081359050612447816136da565b92915050565b60008135905061245c816136f1565b92915050565b600081519050612471816136f1565b92915050565b600082601f83011261248857600080fd5b81356124988482602086016123e5565b91505092915050565b6000813590506124b081613708565b92915050565b6000602082840312156124c857600080fd5b60006124d684828501612423565b91505092915050565b600080604083850312156124f257600080fd5b600061250085828601612423565b925050602061251185828601612423565b9150509250929050565b60008060006060848603121561253057600080fd5b600061253e86828701612423565b935050602061254f86828701612423565b9250506040612560868287016124a1565b9150509250925092565b6000806000806080858703121561258057600080fd5b600061258e87828801612423565b945050602061259f87828801612423565b93505060406125b0878288016124a1565b925050606085013567ffffffffffffffff8111156125cd57600080fd5b6125d987828801612477565b91505092959194509250565b600080604083850312156125f857600080fd5b600061260685828601612423565b925050602061261785828601612438565b9150509250929050565b6000806040838503121561263457600080fd5b600061264285828601612423565b9250506020612653858286016124a1565b9150509250929050565b60006020828403121561266f57600080fd5b600061267d8482850161244d565b91505092915050565b60006020828403121561269857600080fd5b60006126a684828501612462565b91505092915050565b6000602082840312156126c157600080fd5b60006126cf848285016124a1565b91505092915050565b6126e181612f1b565b82525050565b6126f081612f2d565b82525050565b600061270182612e1d565b61270b8185612e33565b935061271b818560208601612f9e565b6127248161316a565b840191505092915050565b600061273a82612e28565b6127448185612e44565b9350612754818560208601612f9e565b61275d8161316a565b840191505092915050565b600061277382612e28565b61277d8185612e55565b935061278d818560208601612f9e565b80840191505092915050565b60006127a6601483612e44565b91506127b18261317b565b602082019050919050565b60006127c9602b83612e44565b91506127d4826131a4565b604082019050919050565b60006127ec603283612e44565b91506127f7826131f3565b604082019050919050565b600061280f602683612e44565b915061281a82613242565b604082019050919050565b6000612832602583612e44565b915061283d82613291565b604082019050919050565b6000612855601c83612e44565b9150612860826132e0565b602082019050919050565b6000612878602483612e44565b915061288382613309565b604082019050919050565b600061289b601983612e44565b91506128a682613358565b602082019050919050565b60006128be602c83612e44565b91506128c982613381565b604082019050919050565b60006128e1601083612e44565b91506128ec826133d0565b602082019050919050565b6000612904603883612e44565b915061290f826133f9565b604082019050919050565b6000612927602a83612e44565b915061293282613448565b604082019050919050565b600061294a602983612e44565b915061295582613497565b604082019050919050565b600061296d602083612e44565b9150612978826134e6565b602082019050919050565b6000612990602c83612e44565b915061299b8261350f565b604082019050919050565b60006129b3602083612e44565b91506129be8261355e565b602082019050919050565b60006129d6602f83612e44565b91506129e182613587565b604082019050919050565b60006129f9602183612e44565b9150612a04826135d6565b604082019050919050565b6000612a1c603183612e44565b9150612a2782613625565b604082019050919050565b6000612a3f602c83612e44565b9150612a4a82613674565b604082019050919050565b612a5e81612f85565b82525050565b6000612a708285612768565b9150612a7c8284612768565b91508190509392505050565b6000602082019050612a9d60008301846126d8565b92915050565b6000608082019050612ab860008301876126d8565b612ac560208301866126d8565b612ad26040830185612a55565b8181036060830152612ae481846126f6565b905095945050505050565b6000602082019050612b0460008301846126e7565b92915050565b60006020820190508181036000830152612b24818461272f565b905092915050565b60006020820190508181036000830152612b4581612799565b9050919050565b60006020820190508181036000830152612b65816127bc565b9050919050565b60006020820190508181036000830152612b85816127df565b9050919050565b60006020820190508181036000830152612ba581612802565b9050919050565b60006020820190508181036000830152612bc581612825565b9050919050565b60006020820190508181036000830152612be581612848565b9050919050565b60006020820190508181036000830152612c058161286b565b9050919050565b60006020820190508181036000830152612c258161288e565b9050919050565b60006020820190508181036000830152612c45816128b1565b9050919050565b60006020820190508181036000830152612c65816128d4565b9050919050565b60006020820190508181036000830152612c85816128f7565b9050919050565b60006020820190508181036000830152612ca58161291a565b9050919050565b60006020820190508181036000830152612cc58161293d565b9050919050565b60006020820190508181036000830152612ce581612960565b9050919050565b60006020820190508181036000830152612d0581612983565b9050919050565b60006020820190508181036000830152612d25816129a6565b9050919050565b60006020820190508181036000830152612d45816129c9565b9050919050565b60006020820190508181036000830152612d65816129ec565b9050919050565b60006020820190508181036000830152612d8581612a0f565b9050919050565b60006020820190508181036000830152612da581612a32565b9050919050565b6000602082019050612dc16000830184612a55565b92915050565b6000612dd1612de2565b9050612ddd8282613003565b919050565b6000604051905090565b600067ffffffffffffffff821115612e0757612e0661313b565b5b612e108261316a565b9050602081019050919050565b600081519050919050565b600081519050919050565b600082825260208201905092915050565b600082825260208201905092915050565b600081905092915050565b6000612e6b82612f85565b9150612e7683612f85565b9250827fffffffffffffffffffffffffffffffffffffffffffffffffffffffffffffffff03821115612eab57612eaa6130ae565b5b828201905092915050565b6000612ec182612f85565b9150612ecc83612f85565b925082612edc57612edb6130dd565b5b828204905092915050565b6000612ef282612f85565b9150612efd83612f85565b925082821015612f1057612f0f6130ae565b5b828203905092915050565b6000612f2682612f65565b9050919050565b60008115159050919050565b60007fffffffff0000000000000000000000000000000000000000000000000000000082169050919050565b600073ffffffffffffffffffffffffffffffffffffffff82169050919050565b6000819050919050565b82818337600083830152505050565b60005b83811015612fbc578082015181840152602081019050612fa1565b83811115612fcb576000848401525b50505050565b60006002820490506001821680612fe957607f821691505b60208210811415612ffd57612ffc61310c565b5b50919050565b61300c8261316a565b810181811067ffffffffffffffff8211171561302b5761302a61313b565b5b80604052505050565b600061303f82612f85565b91507fffffffffffffffffffffffffffffffffffffffffffffffffffffffffffffffff821415613072576130716130ae565b5b600182019050919050565b600061308882612f85565b915061309383612f85565b9250826130a3576130a26130dd565b5b828206905092915050565b7f4e487b7100000000000000000000000000000000000000000000000000000000600052601160045260246000fd5b7f4e487b7100000000000000000000000000000000000000000000000000000000600052601260045260246000fd5b7f4e487b7100000000000000000000000000000000000000000000000000000000600052602260045260246000fd5b7f4e487b7100000000000000000000000000000000000000000000000000000000600052604160045260246000fd5b6000601f19601f8301169050919050565b7f5061757361626c653a206e6f7420706175736564000000000000000000000000600082015250565b7f455243373231456e756d657261626c653a206f776e657220696e646578206f7560008201527f74206f6620626f756e6473000000000000000000000000000000000000000000602082015250565b7f4552433732313a207472616e7366657220746f206e6f6e20455243373231526560008201527f63656976657220696d706c656d656e7465720000000000000000000000000000602082015250565b7f4f776e61626c653a206e6577206f776e657220697320746865207a65726f206160008201527f6464726573730000000000000000000000000000000000000000000000000000602082015250565b7f4552433732313a207472616e736665722066726f6d20696e636f72726563742060008201527f6f776e6572000000000000000000000000000000000000000000000000000000602082015250565b7f4552433732313a20746f6b656e20616c7265616479206d696e74656400000000600082015250565b7f4552433732313a207472616e7366657220746f20746865207a65726f2061646460008201527f7265737300000000000000000000000000000000000000000000000000000000602082015250565b7f4552433732313a20617070726f766520746f2063616c6c657200000000000000600082015250565b7f4552433732313a206f70657261746f7220717565727920666f72206e6f6e657860008201527f697374656e7420746f6b656e0000000000000000000000000000000000000000602082015250565b7f5061757361626c653a2070617573656400000000000000000000000000000000600082015250565b7f4552433732313a20617070726f76652063616c6c6572206973206e6f74206f7760008201527f6e6572206e6f7220617070726f76656420666f7220616c6c0000000000000000602082015250565b7f4552433732313a2062616c616e636520717565727920666f7220746865207a6560008201527f726f206164647265737300000000000000000000000000000000000000000000602082015250565b7f4552433732313a206f776e657220717565727920666f72206e6f6e657869737460008201527f656e7420746f6b656e0000000000000000000000000000000000000000000000602082015250565b7f4552433732313a206d696e7420746f20746865207a65726f2061646472657373600082015250565b7f4552433732313a20617070726f76656420717565727920666f72206e6f6e657860008201527f697374656e7420746f6b656e0000000000000000000000000000000000000000602082015250565b7f4f776e61626c653a2063616c6c6572206973206e6f7420746865206f776e6572600082015250565b7f4552433732314d657461646174613a2055524920717565727920666f72206e6f60008201527f6e6578697374656e7420746f6b656e0000000000000000000000000000000000602082015250565b7f4552433732313a20617070726f76616c20746f2063757272656e74206f776e6560008201527f7200000000000000000000000000000000000000000000000000000000000000602082015250565b7f4552433732313a207472616e736665722063616c6c6572206973206e6f74206f60008201527f776e6572206e6f7220617070726f766564000000000000000000000000000000602082015250565b7f455243373231456e756d657261626c653a20676c6f62616c20696e646578206f60008201527f7574206f6620626f756e64730000000000000000000000000000000000000000602082015250565b6136cc81612f1b565b81146136d757600080fd5b50565b6136e381612f2d565b81146136ee57600080fd5b50565b6136fa81612f39565b811461370557600080fd5b50565b61371181612f85565b811461371c57600080fd5b5056fea26469706673582212204e3e61b4cb8886f31143735b19ecfb4bda4a0186ddc28b5e3c035d3794eae95a64736f6c63430008040033",
  "linkReferences": {},
  "deployedLinkReferences": {}
}