{
  "_format": "hh-sol-artifact-1",
  "contractName": "MockTreasury",
  "sourceName": "contracts/MockTreasury.sol",
  "abi": [
    {
      "inputs": [
        {
          "internalType": "address",
          "name": "_badgeToken",
          "type": "address"
        },
        {
          "internalType": "address",
          "name": "_rewardsToken",
          "type": "address"
        },
        {
          "internalType": "address",
          "name": "_rewardsRegistry",
          "type": "address"
        }
      ],
      "stateMutability": "nonpayable",
      "type": "constructor"
    },
    {
      "anonymous": false,
      "inputs": [
        {
          "indexed": true,
          "internalType": "address",
          "name": "previousOwner",
          "type": "address"
        },
        {
          "indexed": true,
          "internalType": "address",
          "name": "newOwner",
          "type": "address"
        }
      ],
      "name": "OwnershipTransferred",
      "type": "event"
    },
    {
      "inputs": [],
      "name": "doDistribution",
      "outputs": [],
      "stateMutability": "nonpayable",
      "type": "function"
    },
    {
      "inputs": [],
      "name": "owner",
      "outputs": [
        {
          "internalType": "address",
          "name": "",
          "type": "address"
        }
      ],
      "stateMutability": "view",
      "type": "function"
    },
    {
      "inputs": [],
      "name": "renounceOwnership",
      "outputs": [],
      "stateMutability": "nonpayable",
      "type": "function"
    },
    {
      "inputs": [
        {
          "internalType": "address",
          "name": "newOwner",
          "type": "address"
        }
      ],
      "name": "transferOwnership",
      "outputs": [],
      "stateMutability": "nonpayable",
      "type": "function"
    }
  ],
  "bytecode": "0x60806040523480156200001157600080fd5b5060405162000efd38038062000efd833981810160405281019062000037919062000206565b620000576200004b6200012360201b60201c565b6200012b60201b60201c565b81600160006101000a81548173ffffffffffffffffffffffffffffffffffffffff021916908373ffffffffffffffffffffffffffffffffffffffff16021790555082600260006101000a81548173ffffffffffffffffffffffffffffffffffffffff021916908373ffffffffffffffffffffffffffffffffffffffff16021790555080600360006101000a81548173ffffffffffffffffffffffffffffffffffffffff021916908373ffffffffffffffffffffffffffffffffffffffff160217905550505050620002aa565b600033905090565b60008060009054906101000a900473ffffffffffffffffffffffffffffffffffffffff169050816000806101000a81548173ffffffffffffffffffffffffffffffffffffffff021916908373ffffffffffffffffffffffffffffffffffffffff1602179055508173ffffffffffffffffffffffffffffffffffffffff168173ffffffffffffffffffffffffffffffffffffffff167f8be0079c531659141344cd1fd0a4f28419497f9722a3daafe3b4186f6b6457e060405160405180910390a35050565b600081519050620002008162000290565b92915050565b6000806000606084860312156200021c57600080fd5b60006200022c86828701620001ef565b93505060206200023f86828701620001ef565b92505060406200025286828701620001ef565b9150509250925092565b6000620002698262000270565b9050919050565b600073ffffffffffffffffffffffffffffffffffffffff82169050919050565b6200029b816200025c565b8114620002a757600080fd5b50565b610c4380620002ba6000396000f3fe608060405234801561001057600080fd5b506004361061004c5760003560e01c80635a4861fe14610051578063715018a61461005b5780638da5cb5b14610065578063f2fde38b14610083575b600080fd5b61005961009f565b005b610063610502565b005b61006d61058a565b60405161007a919061091a565b60405180910390f35b61009d600480360381019061009891906107b6565b6105b3565b005b6000600260009054906101000a900473ffffffffffffffffffffffffffffffffffffffff1673ffffffffffffffffffffffffffffffffffffffff166318160ddd6040518163ffffffff1660e01b815260040160206040518083038186803b15801561010957600080fd5b505afa15801561011d573d6000803e3d6000fd5b505050506040513d601f19601f820116820180604052508101906101419190610808565b905060008167ffffffffffffffff811115610185577f4e487b7100000000000000000000000000000000000000000000000000000000600052604160045260246000fd5b6040519080825280602002602001820160405280156101b35781602001602082028036833780820191505090505b50905060008267ffffffffffffffff8111156101f8577f4e487b7100000000000000000000000000000000000000000000000000000000600052604160045260246000fd5b6040519080825280602002602001820160405280156102265781602001602082028036833780820191505090505b5090506000805b8481101561039a57600260009054906101000a900473ffffffffffffffffffffffffffffffffffffffff1673ffffffffffffffffffffffffffffffffffffffff16634f6ccce7826040518263ffffffff1660e01b815260040161029091906109d5565b60206040518083038186803b1580156102a857600080fd5b505afa1580156102bc573d6000803e3d6000fd5b505050506040513d601f19601f820116820180604052508101906102e09190610808565b848281518110610319577f4e487b7100000000000000000000000000000000000000000000000000000000600052603260045260246000fd5b602002602001018181525050678ac7230489e80000838281518110610367577f4e487b7100000000000000000000000000000000000000000000000000000000600052603260045260246000fd5b602002602001018181525050678ac7230489e80000826103879190610a3a565b91508061039390610ad8565b905061022d565b50600160009054906101000a900473ffffffffffffffffffffffffffffffffffffffff1673ffffffffffffffffffffffffffffffffffffffff1663095ea7b3600360009054906101000a900473ffffffffffffffffffffffffffffffffffffffff16836040518363ffffffff1660e01b815260040161041a929190610935565b602060405180830381600087803b15801561043457600080fd5b505af1158015610448573d6000803e3d6000fd5b505050506040513d601f19601f8201168201806040525081019061046c91906107df565b50600360009054906101000a900473ffffffffffffffffffffffffffffffffffffffff1673ffffffffffffffffffffffffffffffffffffffff1663f0641fbc84846040518363ffffffff1660e01b81526004016104ca92919061095e565b600060405180830381600087803b1580156104e457600080fd5b505af11580156104f8573d6000803e3d6000fd5b5050505050505050565b61050a6106ab565b73ffffffffffffffffffffffffffffffffffffffff1661052861058a565b73ffffffffffffffffffffffffffffffffffffffff161461057e576040517f08c379a0000000000000000000000000000000000000000000000000000000008152600401610575906109b5565b60405180910390fd5b61058860006106b3565b565b60008060009054906101000a900473ffffffffffffffffffffffffffffffffffffffff16905090565b6105bb6106ab565b73ffffffffffffffffffffffffffffffffffffffff166105d961058a565b73ffffffffffffffffffffffffffffffffffffffff161461062f576040517f08c379a0000000000000000000000000000000000000000000000000000000008152600401610626906109b5565b60405180910390fd5b600073ffffffffffffffffffffffffffffffffffffffff168173ffffffffffffffffffffffffffffffffffffffff16141561069f576040517f08c379a000000000000000000000000000000000000000000000000000000000815260040161069690610995565b60405180910390fd5b6106a8816106b3565b50565b600033905090565b60008060009054906101000a900473ffffffffffffffffffffffffffffffffffffffff169050816000806101000a81548173ffffffffffffffffffffffffffffffffffffffff021916908373ffffffffffffffffffffffffffffffffffffffff1602179055508173ffffffffffffffffffffffffffffffffffffffff168173ffffffffffffffffffffffffffffffffffffffff167f8be0079c531659141344cd1fd0a4f28419497f9722a3daafe3b4186f6b6457e060405160405180910390a35050565b60008135905061078681610bc8565b92915050565b60008151905061079b81610bdf565b92915050565b6000815190506107b081610bf6565b92915050565b6000602082840312156107c857600080fd5b60006107d684828501610777565b91505092915050565b6000602082840312156107f157600080fd5b60006107ff8482850161078c565b91505092915050565b60006020828403121561081a57600080fd5b6000610828848285016107a1565b91505092915050565b600061083d83836108fc565b60208301905092915050565b61085281610a90565b82525050565b600061086382610a00565b61086d8185610a18565b9350610878836109f0565b8060005b838110156108a95781516108908882610831565b975061089b83610a0b565b92505060018101905061087c565b5085935050505092915050565b60006108c3602683610a29565b91506108ce82610b50565b604082019050919050565b60006108e6602083610a29565b91506108f182610b9f565b602082019050919050565b61090581610ace565b82525050565b61091481610ace565b82525050565b600060208201905061092f6000830184610849565b92915050565b600060408201905061094a6000830185610849565b610957602083018461090b565b9392505050565b600060408201905081810360008301526109788185610858565b9050818103602083015261098c8184610858565b90509392505050565b600060208201905081810360008301526109ae816108b6565b9050919050565b600060208201905081810360008301526109ce816108d9565b9050919050565b60006020820190506109ea600083018461090b565b92915050565b6000819050602082019050919050565b600081519050919050565b6000602082019050919050565b600082825260208201905092915050565b600082825260208201905092915050565b6000610a4582610ace565b9150610a5083610ace565b9250827fffffffffffffffffffffffffffffffffffffffffffffffffffffffffffffffff03821115610a8557610a84610b21565b5b828201905092915050565b6000610a9b82610aae565b9050919050565b60008115159050919050565b600073ffffffffffffffffffffffffffffffffffffffff82169050919050565b6000819050919050565b6000610ae382610ace565b91507fffffffffffffffffffffffffffffffffffffffffffffffffffffffffffffffff821415610b1657610b15610b21565b5b600182019050919050565b7f4e487b7100000000000000000000000000000000000000000000000000000000600052601160045260246000fd5b7f4f776e61626c653a206e6577206f776e657220697320746865207a65726f206160008201527f6464726573730000000000000000000000000000000000000000000000000000602082015250565b7f4f776e61626c653a2063616c6c6572206973206e6f7420746865206f776e6572600082015250565b610bd181610a90565b8114610bdc57600080fd5b50565b610be881610aa2565b8114610bf357600080fd5b50565b610bff81610ace565b8114610c0a57600080fd5b5056fea2646970667358221220b76883b0ebf90b3d67a9597064d06d9792befb88f5118a4e616cc73ffbc86b3e64736f6c63430008040033",
  "linkReferences": {},
  "deployedLinkReferences": {}
}