{
  "_format": "hh-sol-artifact-1",
  "contractName": "TecRewardsRegistry",
  "sourceName": "contracts/TecRewardsRegistry.sol",
  "abi": [
    {
      "inputs": [
        {
          "internalType": "address",
          "name": "_badgeToken",
          "type": "address"
        },
        {
          "internalType": "address",
          "name": "_rewardsToken",
          "type": "address"
        }
      ],
      "stateMutability": "nonpayable",
      "type": "constructor"
    },
    {
      "anonymous": false,
      "inputs": [
        {
          "indexed": true,
          "internalType": "address",
          "name": "previousOwner",
          "type": "address"
        },
        {
          "indexed": true,
          "internalType": "address",
          "name": "newOwner",
          "type": "address"
        }
      ],
      "name": "OwnershipTransferred",
      "type": "event"
    },
    {
      "inputs": [
        {
          "internalType": "uint256",
          "name": "",
          "type": "uint256"
        }
      ],
      "name": "accumulatedRewards",
      "outputs": [
        {
          "internalType": "uint256",
          "name": "",
          "type": "uint256"
        }
      ],
      "stateMutability": "view",
      "type": "function"
    },
    {
      "inputs": [],
      "name": "claimAllRewards",
      "outputs": [],
      "stateMutability": "nonpayable",
      "type": "function"
    },
    {
      "inputs": [
        {
          "internalType": "uint256",
          "name": "_id",
          "type": "uint256"
        }
      ],
      "name": "claimRewards",
      "outputs": [],
      "stateMutability": "nonpayable",
      "type": "function"
    },
    {
      "inputs": [
        {
          "internalType": "uint256[]",
          "name": "_ids",
          "type": "uint256[]"
        },
        {
          "internalType": "uint256[]",
          "name": "_amounts",
          "type": "uint256[]"
        }
      ],
      "name": "distributeRewards",
      "outputs": [],
      "stateMutability": "nonpayable",
      "type": "function"
    },
    {
      "inputs": [],
      "name": "owner",
      "outputs": [
        {
          "internalType": "address",
          "name": "",
          "type": "address"
        }
      ],
      "stateMutability": "view",
      "type": "function"
    },
    {
      "inputs": [],
      "name": "renounceOwnership",
      "outputs": [],
      "stateMutability": "nonpayable",
      "type": "function"
    },
    {
      "inputs": [
        {
          "internalType": "address",
          "name": "newOwner",
          "type": "address"
        }
      ],
      "name": "transferOwnership",
      "outputs": [],
      "stateMutability": "nonpayable",
      "type": "function"
    }
  ],
  "bytecode": "0x60806040523480156200001157600080fd5b50604051620011f6380380620011f68339818101604052810190620000379190620001c4565b620000576200004b620000e160201b60201c565b620000e960201b60201c565b81600160006101000a81548173ffffffffffffffffffffffffffffffffffffffff021916908373ffffffffffffffffffffffffffffffffffffffff16021790555080600260006101000a81548173ffffffffffffffffffffffffffffffffffffffff021916908373ffffffffffffffffffffffffffffffffffffffff160217905550505062000253565b600033905090565b60008060009054906101000a900473ffffffffffffffffffffffffffffffffffffffff169050816000806101000a81548173ffffffffffffffffffffffffffffffffffffffff021916908373ffffffffffffffffffffffffffffffffffffffff1602179055508173ffffffffffffffffffffffffffffffffffffffff168173ffffffffffffffffffffffffffffffffffffffff167f8be0079c531659141344cd1fd0a4f28419497f9722a3daafe3b4186f6b6457e060405160405180910390a35050565b600081519050620001be8162000239565b92915050565b60008060408385031215620001d857600080fd5b6000620001e885828601620001ad565b9250506020620001fb85828601620001ad565b9150509250929050565b6000620002128262000219565b9050919050565b600073ffffffffffffffffffffffffffffffffffffffff82169050919050565b620002448162000205565b81146200025057600080fd5b50565b610f9380620002636000396000f3fe608060405234801561001057600080fd5b506004361061007d5760003560e01c80638da5cb5b1161005b5780638da5cb5b146100b25780639bc4fd6e146100d0578063f0641fbc14610100578063f2fde38b1461011c5761007d565b80630962ef79146100825780630b83a7271461009e578063715018a6146100a8575b600080fd5b61009c60048036038101906100979190610b15565b610138565b005b6100a661025d565b005b6100b06103e8565b005b6100ba610470565b6040516100c79190610c11565b60405180910390f35b6100ea60048036038101906100e59190610b15565b610499565b6040516100f79190610d0c565b60405180910390f35b61011a60048036038101906101159190610a77565b6104b1565b005b61013660048036038101906101319190610a25565b6106c8565b005b3373ffffffffffffffffffffffffffffffffffffffff16600160009054906101000a900473ffffffffffffffffffffffffffffffffffffffff1673ffffffffffffffffffffffffffffffffffffffff16636352211e836040518263ffffffff1660e01b81526004016101aa9190610d0c565b60206040518083038186803b1580156101c257600080fd5b505afa1580156101d6573d6000803e3d6000fd5b505050506040513d601f19601f820116820180604052508101906101fa9190610a4e565b73ffffffffffffffffffffffffffffffffffffffff1614610250576040517f08c379a000000000000000000000000000000000000000000000000000000000815260040161024790610cec565b60405180910390fd5b61025a81336107c0565b50565b6000600160009054906101000a900473ffffffffffffffffffffffffffffffffffffffff1673ffffffffffffffffffffffffffffffffffffffff166370a08231336040518263ffffffff1660e01b81526004016102ba9190610c11565b60206040518083038186803b1580156102d257600080fd5b505afa1580156102e6573d6000803e3d6000fd5b505050506040513d601f19601f8201168201806040525081019061030a9190610b3e565b905060005b818110156103e4576000600160009054906101000a900473ffffffffffffffffffffffffffffffffffffffff1673ffffffffffffffffffffffffffffffffffffffff16632f745c5933846040518363ffffffff1660e01b8152600401610376929190610c63565b60206040518083038186803b15801561038e57600080fd5b505afa1580156103a2573d6000803e3d6000fd5b505050506040513d601f19601f820116820180604052508101906103c69190610b3e565b90506103d281336107c0565b50806103dd90610dd6565b905061030f565b5050565b6103f06108a6565b73ffffffffffffffffffffffffffffffffffffffff1661040e610470565b73ffffffffffffffffffffffffffffffffffffffff1614610464576040517f08c379a000000000000000000000000000000000000000000000000000000000815260040161045b90610cac565b60405180910390fd5b61046e60006108ae565b565b60008060009054906101000a900473ffffffffffffffffffffffffffffffffffffffff16905090565b60036020528060005260406000206000915090505481565b8181905084849050146104f9576040517f08c379a00000000000000000000000000000000000000000000000000000000081526004016104f090610ccc565b60405180910390fd5b6000805b8585905081101561060e57838382818110610541577f4e487b7100000000000000000000000000000000000000000000000000000000600052603260045260246000fd5b9050602002013560036000888885818110610585577f4e487b7100000000000000000000000000000000000000000000000000000000600052603260045260246000fd5b90506020020135815260200190815260200160002060008282546105a99190610d38565b925050819055508383828181106105e9577f4e487b7100000000000000000000000000000000000000000000000000000000600052603260045260246000fd5b90506020020135826105fb9190610d38565b91508061060790610dd6565b90506104fd565b50600260009054906101000a900473ffffffffffffffffffffffffffffffffffffffff1673ffffffffffffffffffffffffffffffffffffffff166323b872dd3330846040518463ffffffff1660e01b815260040161066e93929190610c2c565b602060405180830381600087803b15801561068857600080fd5b505af115801561069c573d6000803e3d6000fd5b505050506040513d601f19601f820116820180604052508101906106c09190610aec565b505050505050565b6106d06108a6565b73ffffffffffffffffffffffffffffffffffffffff166106ee610470565b73ffffffffffffffffffffffffffffffffffffffff1614610744576040517f08c379a000000000000000000000000000000000000000000000000000000000815260040161073b90610cac565b60405180910390fd5b600073ffffffffffffffffffffffffffffffffffffffff168173ffffffffffffffffffffffffffffffffffffffff1614156107b4576040517f08c379a00000000000000000000000000000000000000000000000000000000081526004016107ab90610c8c565b60405180910390fd5b6107bd816108ae565b50565b60006003600084815260200190815260200160002054905060006003600085815260200190815260200160002081905550600260009054906101000a900473ffffffffffffffffffffffffffffffffffffffff1673ffffffffffffffffffffffffffffffffffffffff1663a9059cbb83836040518363ffffffff1660e01b815260040161084e929190610c63565b602060405180830381600087803b15801561086857600080fd5b505af115801561087c573d6000803e3d6000fd5b505050506040513d601f19601f820116820180604052508101906108a09190610aec565b50505050565b600033905090565b60008060009054906101000a900473ffffffffffffffffffffffffffffffffffffffff169050816000806101000a81548173ffffffffffffffffffffffffffffffffffffffff021916908373ffffffffffffffffffffffffffffffffffffffff1602179055508173ffffffffffffffffffffffffffffffffffffffff168173ffffffffffffffffffffffffffffffffffffffff167f8be0079c531659141344cd1fd0a4f28419497f9722a3daafe3b4186f6b6457e060405160405180910390a35050565b60008135905061098181610f18565b92915050565b60008151905061099681610f18565b92915050565b60008083601f8401126109ae57600080fd5b8235905067ffffffffffffffff8111156109c757600080fd5b6020830191508360208202830111156109df57600080fd5b9250929050565b6000815190506109f581610f2f565b92915050565b600081359050610a0a81610f46565b92915050565b600081519050610a1f81610f46565b92915050565b600060208284031215610a3757600080fd5b6000610a4584828501610972565b91505092915050565b600060208284031215610a6057600080fd5b6000610a6e84828501610987565b91505092915050565b60008060008060408587031215610a8d57600080fd5b600085013567ffffffffffffffff811115610aa757600080fd5b610ab38782880161099c565b9450945050602085013567ffffffffffffffff811115610ad257600080fd5b610ade8782880161099c565b925092505092959194509250565b600060208284031215610afe57600080fd5b6000610b0c848285016109e6565b91505092915050565b600060208284031215610b2757600080fd5b6000610b35848285016109fb565b91505092915050565b600060208284031215610b5057600080fd5b6000610b5e84828501610a10565b91505092915050565b610b7081610d8e565b82525050565b6000610b83602683610d27565b9150610b8e82610e4e565b604082019050919050565b6000610ba6602083610d27565b9150610bb182610e9d565b602082019050919050565b6000610bc9601183610d27565b9150610bd482610ec6565b602082019050919050565b6000610bec601483610d27565b9150610bf782610eef565b602082019050919050565b610c0b81610dcc565b82525050565b6000602082019050610c266000830184610b67565b92915050565b6000606082019050610c416000830186610b67565b610c4e6020830185610b67565b610c5b6040830184610c02565b949350505050565b6000604082019050610c786000830185610b67565b610c856020830184610c02565b9392505050565b60006020820190508181036000830152610ca581610b76565b9050919050565b60006020820190508181036000830152610cc581610b99565b9050919050565b60006020820190508181036000830152610ce581610bbc565b9050919050565b60006020820190508181036000830152610d0581610bdf565b9050919050565b6000602082019050610d216000830184610c02565b92915050565b600082825260208201905092915050565b6000610d4382610dcc565b9150610d4e83610dcc565b9250827fffffffffffffffffffffffffffffffffffffffffffffffffffffffffffffffff03821115610d8357610d82610e1f565b5b828201905092915050565b6000610d9982610dac565b9050919050565b60008115159050919050565b600073ffffffffffffffffffffffffffffffffffffffff82169050919050565b6000819050919050565b6000610de182610dcc565b91507fffffffffffffffffffffffffffffffffffffffffffffffffffffffffffffffff821415610e1457610e13610e1f565b5b600182019050919050565b7f4e487b7100000000000000000000000000000000000000000000000000000000600052601160045260246000fd5b7f4f776e61626c653a206e6577206f776e657220697320746865207a65726f206160008201527f6464726573730000000000000000000000000000000000000000000000000000602082015250565b7f4f776e61626c653a2063616c6c6572206973206e6f7420746865206f776e6572600082015250565b7f57726f6e6720696e7075742073697a6573000000000000000000000000000000600082015250565b7f4f6e6c79206f776e65722063616e20636c61696d000000000000000000000000600082015250565b610f2181610d8e565b8114610f2c57600080fd5b50565b610f3881610da0565b8114610f4357600080fd5b50565b610f4f81610dcc565b8114610f5a57600080fd5b5056fea2646970667358221220a8ccf7c4ebb631b3655434fe7117341b0e80536861b323affb7cf1064be1399c64736f6c63430008040033",
  "linkReferences": {},
  "deployedLinkReferences": {}
}